:020000040800F2
:100000005806002045010008790300084503000850
:1000100075030008A10100081B0D00080000000086
:1000200000000000000000000000000019050008AA
:10003000A501000800000000010400082D060008CA
:100040005F0100085F0100085F0100085F01000810
:100050005F0100085F0100085F0100085F01000800
:100060005F0100085F0100085F0100085F010008F0
:100070005F0100085F0100085F0100085F010008E0
:100080005F0100085F0100085F0100085F010008D0
:100090005F0100085F0100085F0100085F010008C0
:1000A0005F0100085F0100085F0100085F010008B0
:1000B000910600085F0100085F0100085F01000869
:1000C0005F0100085F0100085F0100085F01000890
:1000D0005F010008650A0008AD0A00085F0100081A
:1000E0005F0100085F0100085F0100085F01000870
:1000F0005F0100085F0100085F0100085F01000860
:100100005F0100085F0100085F0100085F0100084F
:100110005F0100085F0100085F0100085F0100083F
:100120005F0100085F0100085F0100085F0100082F
:10013000DFF80CD000F022F800480047E90D000875
:10014000580600200648804706480047FEE7FEE7BD
:10015000FEE7FEE7FEE7FEE7FEE7FEE7FEE7FEE777
:100160003106000831010008034611F8012B00F8A0
:10017000012B002AF9D1184670470000064C074DA4
:1001800006E0E06840F0010394E807009847103467
:10019000AC42F6D3FFF7D0FF5811000878110008E1
:1001A00000BFFEE770472DE9F0410246002500261A
:1001B000002000230024002791F803C00CF00F0555
:1001C00091F803C00CF0100CBCF1000F03D091F8B3
:1001D00002C04CEA050591F800C0BCF1000F31D017
:1001E000146800202BE04FF0010C0CFA00F3B1F87A
:1001F00000C00CEA03069E4220D183004FF00F0C92
:100200000CFA03F7BC4305FA03FC4CEA040491F82A
:1002100003C0BCF1280F06D14FF0010C0CFA00FC12
:10022000C2F814C00AE091F803C0BCF1480F05D130
:100230004FF0010C0CFA00FCC2F810C0401C08285A
:10024000D1D31460B1F800C0BCF1FF0F34DD5468A5
:1002500000202EE000F1080C4FF0010808FA0CF322
:10026000B1F800C00CEA03069E4221D183004FF092
:100270000F0C0CFA03F7BC4305FA03FC4CEA040428
:1002800091F803C0BCF1280F05D100F1080C08FA61
:100290000CF8C2F8148091F803C0BCF1480F07D1E4
:1002A00000F1080C4FF0010808FA0CF8C2F81080B1
:1002B000401C0828CED35460BDE8F08141617047EE
:1002C0000161704708B50121042000F0ABF8182047
:1002D0008DF803004FF40070ADF8000003208DF896
:1002E000020069460648FFF75EFF04208DF8030010
:1002F0000002ADF8000069460148FFF754FF08BD51
:100300000008014008B50121042000F08BF81820F6
:100310008DF803000420ADF8000003208DF80200E2
:1003200069460748FFF73FFF04208DF803000820C7
:10033000ADF8000069460248FFF735FF08BD000030
:100340000008014000BFFEE708B50121042000F0CD
:1003500069F810208DF803000001ADF800000320BB
:100360008DF8020069460248FFF71DFF08BD000036
:100370000008014000BFFEE77047000070B5002193
:1003800000230F22C47804B3154C246804F4E064FD
:10039000C4F5E064210AC1F10403CA40447804FAB8
:1003A00003F184781440214309010E4C0678A155CD
:1003B000047804F01F050124AC4005786D11AD00F0
:1003C00005F1E025C5F8004109E0047804F01F05B7
:1003D0000124AC40044D0678761145F8264070BDE6
:1003E0000CED00E000E400E080E100E002490143A0
:1003F000024A1160704700000000FA050CED00E0B1
:100400007047000029B1064AD2690243044BDA6101
:1004100004E0034AD2698243014BDA61704700006D
:100420000010024029B1064A92690243044B9A61C6
:1004300004E0034A92698243014B9A6170470000CD
:100440000010024030B500210022002400232D4D71
:100450006D6805F00C0121B1042905D0082923D1CC
:1004600005E0294D056022E0274D05601FE0254D80
:100470006D6805F47012234D6D6805F48034022513
:1004800005EB92421CB9214D554305600BE01D4D13
:100490006D6805F400351DB11C4D5543056002E043
:1004A000194D5543056002E0174D056000BF00BFC0
:1004B000144D6D6805F0F0010909154D6B5C056878
:1004C000DD4045600F4D6D6805F4E061090A104D8F
:1004D0006B5C4568DD4085600A4D6D6805F46051D0
:1004E000C90A0B4D6B5C4568DD40C560054D6D6804
:1004F00005F44041890B074D6B5CC568B5FBF3F50E
:10050000056130BD0010024000127A0000093D0074
:100510001400002024000020704710B500F002F8FD
:1005200010BD00000CB50020019000903348006819
:1005300040F480303149086000BF3048006800F462
:10054000003000900198401C0190009818B9019863
:10055000B0F5A06FF1D12948006800F4003010B167
:100560000120009001E0002000900098012843D174
:100570002348006840F010002149086008460068E0
:1005800020F0030008600846006840F002000860A0
:100590001A4840681949486008464068486008465B
:1005A000406840F4806048600846406820F47C1051
:1005B00048600846406840F4E81048600846006813
:1005C00040F08070086000BF0C48006800F00070C8
:1005D0000028F9D00948406820F003000749486026
:1005E0000846406840F00200486000BF0348406889
:1005F00000F00C000828F9D10CBD000000100240EA
:1006000000200240042808D14FF0E021096941F0A0
:1006100004014FF0E022116107E04FF0E021096989
:1006200021F004014FF0E022116170477047000093
:1006300010B51348006840F00100114908600846F1
:100640004068104908400E494860084600680E4955
:1006500008400B4908600846006820F480200860C4
:100660000846406820F4FE0048604FF41F00886090
:10067000FFF753FF4FF000600449086010BD000011
:10068000001002400000FFF8FFFFF6FE08ED00E05A
:1006900010B50121880700F089F8012813D1012144
:1006A000800700F065F8084800681E2805DA06484B
:1006B0000068401C0449086005E001200349086007
:1006C00000200149086010BD4800002044000020BF
:1006D00000B587B001210420FFF794FE0020ADF89B
:1006E0001600ADF8120040F2E730ADF8140040F209
:1006F0009F50ADF8100004A9164800F00BF97020C7
:10070000ADF800000020ADF808000120ADF80200AF
:1007100040F2C620ADF8060069460E4800F0AEF87B
:1007200069460C4800F054F801210A4800F014F81A
:100730000821084800F0E0F80821064800F094F885
:100740000121044800F023F80121024800F013F8C9
:1007500007B000BD0008004021B1028842F08002CD
:10076000028004E002884FF67F731A4002807047CF
:10077000CA430282704721B1028842F0010202801E
:1007800004E002884FF6FE731A400280704731B1D0
:10079000B0F8442042F40042A0F8442005E0B0F84C
:1007A0004420C2F30E02A0F84420704730B5024640
:1007B000002000230024158A05EA0103958905EA33
:1007C000010413B10CB1012000E0002030BD000095
:1007D00070B5002400220023058C4FF6FE763540CC
:1007E0000584028C8388048B4FF68F752C40B51ED0
:1007F0002C400D882C43751E2A400D892A434D88B4
:100800002A43144DA8420BD0134DA84208D0134DD3
:10081000A84205D0124DA84202D0124DA84213D1D1
:100820004FF6F7752A404D892A434FF6FB752A404B
:100830008D882A434FF6FF652B404FF6FF552B401E
:100840008D892B43CD892B4383800483CD88858676
:10085000028470BD002C0140003401400040014082
:1008600000440140004801400A460021018B4FF638
:10087000F7731940114301837047000070B50022DF
:1008800000230024058C4EF6FF7635400584038C4A
:100890008488828B48F6FF752A404FF6FF452A4030
:1008A0000D884FF6FF7606EA05252A434DF6FF75BB
:1008B0002B400D8906EA05352B434D8806EA0535A0
:1008C0002B430B4DA84202D00A4DA84208D14BF64B
:1008D000FF752C408D894FF6FF7606EA85152C436F
:1008E00084808283CD88A0F84050038470BD0000CE
:1008F000002C0140003401400A460021818B4FF258
:10090000FF7319404FF6FF7303EA022319438183F3
:1009100070470000002202881D4B98420ED01D4BEC
:1009200098420BD0B0F1804F08D01B4B984205D0B5
:100930001A4B984202D01A4B984204D14FF68F734B
:100940001A404B881A43174B984207D0164B9842CF
:1009500004D04FF6FF431A40CB881A4302808B889D
:1009600083850B8803850A4B98420BD0094B98422C
:1009700008D00E4B984205D00D4B984202D00D4B3B
:10098000984201D10B7A03860123838270470000CD
:10099000002C0140003401400004004000080040E9
:1009A000000C0040001000400014004000400140D6
:1009B000004401400048014010B500F01BF86420DD
:1009C00000F0D6F94FF480610848FFF777FC042166
:1009D0000748FFF775FC4FF480510448FFF770FC9F
:1009E0004FF400510148FFF769FC10BD000C0140B5
:1009F0000010014010B54FF480610948FFF75EFC1C
:100A000004210848FFF75AFC4FF480510448FFF7CF
:100A100055FC4FF400510248FFF750FC10BD000098
:100A2000000C01400010014010B5FFF7E3FF642007
:100A300000F09EF94FF480610848FFF741FC042163
:100A40000748FFF73BFC4FF480510448FFF736FCA2
:100A50004FF400510148FFF733FC10BD000C01407A
:100A60000010014010B540F225510F4800F091F8F8
:100A7000C8B10D4800F048F9C4B2632C07D06F2C00
:100A800002D0732C09D105E0FFF7CEFF05E0FFF798
:100A900093FF02E0FFF7AEFF00BF00BF40F2255119
:100AA000014800F04EF810BD0038014010B540F28A
:100AB0002551194800F06DF868B318480078F8B966
:100AC000154800F021F916490968164A1278885429
:100AD00013480068134A1278815C134800F019F932
:100AE0000F4800680F490978405C50B901200B4954
:100AF00008700C4800780D490870002009490870FA
:100B000004E008480078401C0649087040F225516E
:100B1000014800F016F810BD004400403E000020DF
:100B2000380000203C000020003801403D0000203B
:100B300001F40072B2F5007F00D100BFCA43028009
:100B4000704710B50022002340F66A14A14200D17C
:100B500000BF0A1201249440A3B2DC43048010BDFC
:100B600021B1828942F40052828104E082894DF6EB
:100B7000FF731A408281704702460020B1F5007F62
:100B800000D100BF13880B400BB1012000E0002012
:100B9000704770B50246002400230025002040F66F
:100BA0006A16B14200D100BFC1F3421501F01F0324
:100BB000012606FA03F3012D02D19689334006E09F
:100BC000022D02D1168A334001E0968A33400C127E
:100BD000012606FA04F41688344013B10CB1012042
:100BE00000E0002070BDF0B503460024002600257B
:100BF000002040F66A17B94200D100BF1846C1F381
:100C0000421401F01F06012707FA06F5012C01D155
:100C10000C3004E0022C01D1103000E014301AB185
:100C200007682F43076002E00768AF430760F0BD25
:100C30002DE9F04786B005460E460024A24600BFC7
:100C4000A1460027B08900B100BF2F462C8A4CF680
:100C5000FF700440F08804432C82AC894EF6F310F8
:100C60000440B08831890843718908430443AC814A
:100C7000AC8A4FF6FF400440B0890443AC8201A81F
:100C8000FFF7E0FB1F48874202D1DDF810A001E02A
:100C9000DDF80CA0A88900F4004040B10AEBCA00BE
:100CA00000EB0A1031684900B0FBF1F807E00AEBED
:100CB000CA0000EB0A1031688900B0FBF1F864202B
:100CC000B8FBF0F004012009642101FB1089A88918
:100CD00000F4004040B1322000EBC900B0FBF1F05D
:100CE00000F00700044308E0322000EB0910642103
:100CF000B0FBF1F000F00F0004432C8106B0BDE81A
:100D0000F08700000038014001468888C0F30800E1
:100D10007047C1F308028280704700BFFEE7000001
:100D2000014A024900F013B8BD0D00084C00002034
:100D300002E008C8121F08C1002AFAD170477047A4
:100D4000002001E001C1121F002AFBD170472DE9EC
:100D5000F04116460F460446002503E03946B047E9
:100D6000641C6D1C20780028F8D12846BDE8F0816D
:100D70000146114A12884A434FF0E0235A6100228B
:100D80009A611A46126942F001021A6100BF4FF0DF
:100D9000E022106900F001021AB100F48032002A4A
:100DA000F5D04FF0E022126922F001024FF0E0236B
:100DB0001A6100229A6170474200002070B5044613
:100DC0000D46E1B20748FFF7A4FF00BF40210548E8
:100DD000FFF7D2FE0028F9D040210248FFF7A8FE15
:100DE000204670BD00380140A0B0FFF7ADFA00F01A
:100DF00017F900F051F900F0A5F800F075F8FFF7C9
:100E000067FC00F08BF94FF400411648FFF758FAE1
:100E10004FF480411348FFF753FA40F2CF2140F2DC
:100E2000CF7000F0B1F84FF480710F48FFF746FA29
:100E30004FF47A70FFF79CFF00BF00BF00BF00BFF8
:100E40000AA0FFF76DFF0BE00A480078012807D1E0
:100E5000094801686846FFF787F9002005490870CE
:100E6000F2E70000000C0140000801407375636365
:100E700065640A003E00002038000020F0B50B3009
:100E8000154D20F007010024144A0FE003688B423F
:100E90000BD38B4205D95E1A43184768C3E9006734
:100EA00000E04368136002C004E0021D10680028DF
:100EB000ECD12046002802D1286808B10020F0BDFE
:100EC000064A07481060074A121A22F00702C0E9D2
:100ED000002401202860D7E75400002050000020A3
:100EE0005C0000205802002008B501211920FFF7FE
:100EF00099FA10208DF803004FF45050ADF800001F
:100F000003208DF8020069460C48FFF74CF90420D5
:100F1000ADF8000069460A48FFF745F918208DF83A
:100F200003004FF41070ADF8000003208DF80200AC
:100F300069460248FFF737F908BD0000000C014080
:100F40000010014010B56FF00400FFF75BFB0A488A
:100F500000680A49B0FBF1F00949087008460078BA
:100F600000EB4001C1EBC0104FF6FF7101EAC00079
:100F70000449088010BD00000000002000127A0023
:100F8000400000204200002030B589B005460C46E4
:100F9000012142F21100FFF745FA18208DF82300D5
:100FA0004020ADF8200003208DF8220008A91A483F
:100FB000FFF7F9F80020ADF81A00ADF81600A8B256
:100FC000ADF81800A0B2ADF8140005A91348FFF75A
:100FD000A1FC7020ADF804000020ADF80C00012049
:100FE000ADF8060040F29E70ADF80A0001A90B486A
:100FF000FFF7EEFB01210948FFF7AEFB0821074888
:10100000FFF732FC01210548FFF7B5FB012103483A
:10101000FFF7BDFB09B030BD0010014000340140B6
:1010200000B585B0FFF74EF901218803FFF7FAF903
:101030004FF4E13001900020ADF810000C20ADF825
:101040000E000020ADF80C00ADF80A00ADF8080065
:1010500001A91048FFF7ECFD012240F225510D488F
:10106000FFF7C1FD4FF4A060FFF7C0F925208DF810
:10107000000001208DF803008DF801008DF80200BA
:101080006846FFF77BF901210248FFF769FD05B0CB
:1010900000BD00000038014000B585B0FFF732F90F
:1010A00001214804FFF7AEF94FF4165001900020DB
:1010B000ADF810000C20ADF80E000020ADF80C00CB
:1010C000ADF80A00ADF8080001A91248FFF7B0FD1D
:1010D000012240F225510F48FFF785FD4FF4A06033
:1010E000FFF784F926208DF8000001208DF8030019
:1010F0008DF801008DF802006846FFF73FF90121E5
:101100000448FFF72DFD8020FFF7B8FE0249086074
:1011100005B000BD004400403800002008B50121A2
:101120000820FFF77FF914208DF803004FF40040EA
:10113000ADF8000003208DF8020069460548FFF76E
:1011400032F84FF48040ADF8000069460148FFF7DF
:101150002AF808BD000C01407811000800000020AA
:1011600058000000300D0008D01100085800002081
:1011700000060000400D000800A24A040000000024
:101180000000000001020304060708090000000037
:101190000102030401020304060708090204060809
:1011A000000000000000000000000000000000003F
:1011B000000000000000000000000000000000002F
:1011C000000000000000000000000000000000001F
:0400000508000131BD
:00000001FF
