:020000040800F2
:10000000880600204501000859040008250400085E
:1000100055040008210200081B0F00080000000022
:10002000000000000000000000000000F9050008CA
:100030002502000800000000E10400080D07000888
:100040005F0100085F0100085F0100085F01000810
:100050005F0100085F0100085F0100085F01000800
:100060005F0100085F0100085F0100085F010008F0
:100070005F0100085F0100085F0100085F010008E0
:100080005F0100085F0100085F0100085F010008D0
:100090005F0100085F0100085F0100085F010008C0
:1000A0005F0100085F0100085F0100085F010008B0
:1000B000710700085F0100085F0100085F01000888
:1000C0005F0100085F0100085F0100085F01000890
:1000D0005F010008490B0008910B00085F01000850
:1000E0005F0100085F0100085F0100085F01000870
:1000F0005F0100085F0100085F0100085F01000860
:100100005F0100085F0100085F0100085F0100084F
:100110005F0100085F0100085F0100085F0100083F
:100120005F0100085F0100085F0100085F0100082F
:10013000DFF80CD000F062F8004800471D150008F9
:10014000880600200648804706480047FEE7FEE78D
:10015000FEE7FEE7FEE7FEE7FEE7FEE7FEE7FEE777
:100160001107000831010008D2B201E000F8012BAC
:10017000491EFBD270470022F6E710B513460A4627
:1001800004461946FFF7F0FF204610BD30B505467E
:100190002A460B4612F8010B13F8014B08B1A04296
:1001A000F8D01CB1002802D06D1CF1E7284630BD04
:1001B000421C10F8011B0029FBD1801A704703462E
:1001C00011F8012B00F8012B002AF9D118467047CD
:1001D00030B50B46014600202022012409E021FA17
:1001E00002F59D4205D303FA02F5491B04FA02F514
:1001F0002844151EA2F10102F1DC30BD064C074D6A
:1002000006E0E06840F0010394E8070098471034E6
:10021000AC42F6D3FFF790FF681C0008881C00086A
:1002200000BFFEE7704700000146114A12784A43BA
:100230004FF0E0235A6100229A611A46126942F097
:1002400001021A6100BF4FF0E022106900F00102C4
:100250001AB100F48032002AF5D04FF0E022126982
:1002600022F001024FF0E0231A6100229A617047E8
:100270005C0000202DE9F041024600250026002008
:1002800000230024002791F803C00CF00F0591F81B
:1002900003C00CF0100CBCF1000F03D091F802C0A9
:1002A0004CEA050591F800C0BCF1000F31D014688C
:1002B00000202BE04FF0010C0CFA00F3B1F800C065
:1002C0000CEA03069E4220D183004FF00F0C0CFA7B
:1002D00003F7BC4305FA03FC4CEA040491F803C09D
:1002E000BCF1280F06D14FF0010C0CFA00FCC2F84B
:1002F00014C00AE091F803C0BCF1480F05D14FF0DB
:10030000010C0CFA00FCC2F810C0401C0828D1D324
:100310001460B1F800C0BCF1FF0F34DD5468002058
:100320002EE000F1080C4FF0010808FA0CF3B1F8C8
:1003300000C00CEA03069E4221D183004FF00F0C4F
:100340000CFA03F7BC4305FA03FC4CEA040491F8E9
:1003500003C0BCF1280F05D100F1080C08FA0CF815
:10036000C2F8148091F803C0BCF1480F07D100F126
:10037000080C4FF0010808FA0CF8C2F81080401C75
:100380000828CED35460BDE8F0810246002093686F
:100390000B400BB1012000E0002070474161704725
:1003A0000161704708B50121042000F0ABF8182066
:1003B0008DF803004FF40070ADF8000003208DF8B5
:1003C000020069460648FFF755FF04208DF8030038
:1003D0000002ADF8000069460148FFF74BFF08BD79
:1003E0000008014008B50121042000F08BF8182016
:1003F0008DF803000420ADF8000003208DF8020002
:1004000069460748FFF736FF04208DF803000820EF
:10041000ADF8000069460248FFF72CFF08BD000058
:100420000008014000BFFEE708B50121042000F0EC
:1004300069F810208DF803000001ADF800000320DA
:100440008DF8020069460248FFF714FF08BD00005E
:100450000008014000BFFEE77047000070B50021B2
:1004600000230F22C47804B3154C246804F4E0641C
:10047000C4F5E064210AC1F10403CA40447804FAD7
:1004800003F184781440214309010E4C0678A155EC
:10049000047804F01F050124AC4005786D11AD000F
:1004A00005F1E025C5F8004109E0047804F01F05D6
:1004B0000124AC40044D0678761145F8264070BD05
:1004C0000CED00E000E400E080E100E002490143BF
:1004D000024A1160704700000000FA050CED00E0D0
:1004E0007047000029B1064AD2690243044BDA6121
:1004F00004E0034AD2698243014BDA61704700008D
:100500000010024029B1064A92690243044B9A61E5
:1005100004E0034A92698243014B9A6170470000EC
:100520000010024030B500210022002400232D4D90
:100530006D6805F00C0121B1042905D0082923D1EB
:1005400005E0294D056022E0274D05601FE0254D9F
:100550006D6805F47012234D6D6805F48034022532
:1005600005EB92421CB9214D554305600BE01D4D32
:100570006D6805F400351DB11C4D5543056002E062
:10058000194D5543056002E0174D056000BF00BFDF
:10059000144D6D6805F0F0010909154D6B5C056897
:1005A000DD4045600F4D6D6805F4E061090A104DAE
:1005B0006B5C4568DD4085600A4D6D6805F46051EF
:1005C000C90A0B4D6B5C4568DD40C560054D6D6823
:1005D00005F44041890B074D6B5CC568B5FBF3F52D
:1005E000056130BD0010024000127A0000093D0094
:1005F0001400002024000020704710B500F002F81D
:1006000010BD00000CB50020019000903348006838
:1006100040F480303149086000BF3048006800F481
:10062000003000900198401C0190009818B9019882
:10063000B0F5A06FF1D12948006800F4003010B186
:100640000120009001E0002000900098012843D193
:100650002348006840F010002149086008460068FF
:1006600020F0030008600846006840F002000860BF
:100670001A4840681949486008464068486008467A
:10068000406840F4806048600846406820F47C1070
:1006900048600846406840F4E81048600846006832
:1006A00040F08070086000BF0C48006800F00070E7
:1006B0000028F9D00948406820F003000749486045
:1006C0000846406840F00200486000BF03484068A8
:1006D00000F00C000828F9D10CBD00000010024009
:1006E00000200240042808D14FF0E021096941F0C0
:1006F00004014FF0E022116107E04FF0E0210969A9
:1007000021F004014FF0E0221161704770470000B2
:1007100010B51348006840F0010011490860084610
:100720004068104908400E494860084600680E4974
:1007300008400B4908600846006820F480200860E3
:100740000846406820F4FE0048604FF41F008860AF
:10075000FFF753FF4FF000600449086010BD000030
:10076000001002400000FFF8FFFFF6FE08ED00E079
:1007700010B50121880700F089F8012813D1012163
:10078000800700F065F8084800683C2805DA06484C
:100790000068401C0449086005E001200349086026
:1007A00000200149086010BD6400002060000020A6
:1007B00000B587B001210420FFF794FE0020ADF8BA
:1007C0001600ADF8120040F2E730ADF8140040F228
:1007D0009F50ADF8100004A9164800F00DF97020E4
:1007E000ADF800000020ADF808000120ADF80200CF
:1007F0004FF42F70ADF8060069460E4800F0AEF8D1
:1008000069460C4800F054F801210A4800F014F839
:100810000821084800F0E0F80821064800F094F8A4
:100820000121044800F023F80121024800F013F8E8
:1008300007B000BD0008004021B1028842F08002EC
:10084000028004E002884FF67F731A4002807047EE
:10085000CA430282704721B1028842F0010202803D
:1008600004E002884FF6FE731A400280704731B1EF
:10087000B0F8442042F40042A0F8442005E0B0F86B
:100880004420C2F30E02A0F84420704730B502465F
:10089000002000230024158A05EA0103958905EA52
:1008A000010413B10CB1012000E0002030BD0000B4
:1008B00070B5002400220023058C4FF6FE763540EB
:1008C0000584028C8388048B4FF68F752C40B51EEF
:1008D0002C400D882C43751E2A400D892A434D88D3
:1008E0002A43144DA8420BD0134DA84208D0134DF3
:1008F000A84205D0124DA84202D0124DA84213D1F1
:100900004FF6F7752A404D892A434FF6FB752A406A
:100910008D882A434FF6FF652B404FF6FF552B403D
:100920008D892B43CD892B4383800483CD88858695
:10093000028470BD002C01400034014000400140A1
:1009400000440140004801400A460021018B4FF657
:10095000F7731940114301837047000070B50022FE
:1009600000230024058C4EF6FF7635400584038C69
:100970008488828B48F6FF752A404FF6FF452A404F
:100980000D884FF6FF7606EA05252A434DF6FF75DA
:100990002B400D8906EA05352B434D8806EA0535BF
:1009A0002B430B4DA84202D00A4DA84208D14BF66A
:1009B000FF752C408D894FF6FF7606EA85152C438E
:1009C00084808283CD88A0F84050038470BD0000ED
:1009D000002C0140003401400A460021818B4FF277
:1009E000FF7319404FF6FF7303EA02231943818313
:1009F0007047818670470000002202881D4B984294
:100A00000ED01D4B98420BD0B0F1804F08D01B4B3D
:100A1000984205D01A4B984202D01A4B984204D102
:100A20004FF68F731A404B881A43174B984207D0E2
:100A3000164B984204D04FF6FF431A40CB881A4316
:100A400002808B8883850B8803850A4B98420BD0E4
:100A5000094B984208D00E4B984205D00D4B984256
:100A600002D00D4B984201D10B7A03860123838279
:100A700070470000002C0140003401400004004099
:100A800000080040000C004000100040001400402E
:100A900000400140004401400048014010B500F012
:100AA0001BF8642000F006FB4FF480610848FFF754
:100AB00075FC04210748FFF773FC4FF4805104488C
:100AC000FFF76EFC4FF400510148FFF767FC10BDC3
:100AD000000C01400010014010B54FF4806109483E
:100AE000FFF75CFC04210848FFF758FC4FF48051E5
:100AF0000448FFF753FC4FF400510248FFF74EFC47
:100B000010BD0000000C01400010014010B5FFF7BF
:100B1000E3FF642000F0CEFA4FF480610848FFF74D
:100B20003FFC04210748FFF739FC4FF4805104488B
:100B3000FFF734FC4FF400510148FFF731FC10BDC2
:100B4000000C01400010014010B540F225510F4843
:100B500000F01FF9C8B10D4800F0D6F9C4B2632CFB
:100B600007D06F2C02D0732C09D105E0FFF7CEFF20
:100B700005E0FFF793FF02E0FFF7AEFF00BF00BF05
:100B800040F22551014800F0DCF810BD003801406A
:100B900010B540F225515A4800F0FBF800287DD0EE
:100BA0005848007830B15848007818B15748007854
:100BB000002832D153480078012835D152480078B6
:100BC000012831D14E4800F09FF951490968514A36
:100BD000127888544E4800684E490978405CE8B95C
:100BE00000204C4908704A48006800787B28E0D112
:100BF00047480068407841287CD1454800688078A3
:100C0000442877D142480068C078442872D142A075
:100C100000F086F901203D4908706BE03D480078FE
:100C2000401C3C49087065E0354800F06DF93C49CE
:100C300009683C4A1278885439480068394909786B
:100C4000405C002851D137480078374908700020AF
:100C5000344908703248006800787B2817D1304842
:100C6000006840784D2812D12D48006880786128AE
:100C70000DD12B480068C078782808D1012021497F
:100C800008702748016829480068FFF798FA244847
:100C9000006800787B2817D1214800E02FE0006829
:100CA0004078412810D11E480068807844280BD134
:100CB0001B480068C078442806D117A000F030F91E
:100CC00001201249087015E01548006800787B285B
:100CD00010D115480078C01E11490968085C7D28AC
:100CE00008D101200849087004E00E480078401C33
:100CF0000C49087040F22551014800F022F810BD5F
:100D00000044004054000020530000205500002003
:100D10004C000020500000207B4144447D0A00002C
:100D20004800002051000020520000205800002000
:100D300001F40072B2F5007F00D100BFCA43028007
:100D4000704710B50022002340F66A14A14200D17A
:100D500000BF0A1201249440A3B2DC43048010BDFA
:100D600021B1828942F40052828104E082894DF6E9
:100D7000FF731A408281704702460020B1F5007F60
:100D800000D100BF13880B400BB1012000E0002010
:100D9000704770B50246002400230025002040F66D
:100DA0006A16B14200D100BFC1F3421501F01F0322
:100DB000012606FA03F3012D02D19689334006E09D
:100DC000022D02D1168A334001E0968A33400C127C
:100DD000012606FA04F41688344013B10CB1012040
:100DE00000E0002070BDF0B5034600240026002579
:100DF000002040F66A17B94200D100BF1846C1F37F
:100E0000421401F01F06012707FA06F5012C01D153
:100E10000C3004E0022C01D1103000E014301AB183
:100E200007682F43076002E00768AF430760F0BD23
:100E30002DE9F04786B005460E460024A24600BFC5
:100E4000A1460027B08900B100BF2F462C8A4CF67E
:100E5000FF700440F08804432C82AC894EF6F310F6
:100E60000440B08831890843718908430443AC8148
:100E7000AC8A4FF6FF400440B0890443AC8201A81D
:100E8000FFF750FB1F48874202D1DDF810A001E0B8
:100E9000DDF80CA0A88900F4004040B10AEBCA00BC
:100EA00000EB0A1031684900B0FBF1F807E00AEBEB
:100EB000CA0000EB0A1031688900B0FBF1F8642029
:100EC000B8FBF0F004012009642101FB1089A88916
:100ED00000F4004040B1322000EBC900B0FBF1F05B
:100EE00000F00700044308E0322000EB0910642101
:100EF000B0FBF1F000F00F0004432C8106B0BDE818
:100F0000F08700000038014001468888C0F30800DF
:100F10007047C1F308028280704700BFFEE70000FF
:100F20000FB4054B10B503A9044A029800F018F855
:100F300010BC5DF814FB0000491400087C00002080
:100F400002E008C8121F08C1002AFAD17047704792
:100F5000002001E001C1121F002AFBD170470000F0
:100F60002DE9FF4F89B09B460446002506E0252861
:100F70000BD05A460B999047641C6D1C20780028B2
:100F8000F5D10DB02846BDE8F08F0027B846012204
:100F9000474900E0074314F8013F203B02FA03F001
:100FA0000842F7D120782E2819D114F8010F47F004
:100FB00004072A280ED06FF02F022078A0F130010C
:100FC00009290CD808EB880102EB410100EB01086C
:100FD000641CF2E70A98641C50F8048B0A9020788D
:100FE0000028CED0642808D0692806D075281ED0E5
:100FF0005A460B9990476D1C58E00A994FF00A0920
:1010000001C90A91002802DA40422D2102E0390587
:1010100004D52B218DF82010012103E0F90704D01D
:101020002021F7E78A4608AE0DE00021FAE70A9989
:101030004FF00A0901C90A91F7E74946FFF7C8F8D6
:10104000303106F8011D0028F7D1ADEB060000F1A4
:101050002009780701D44FF00108C84502DDA8EB4C
:10106000090000E000208046002706E008A85A4654
:10107000C05D0B9990476D1C7F1C5745F6DB04E063
:1010800030205A460B9990476D1CB8F10001A8F129
:101090000108F5DC05E016F8010B5A460B9990475C
:1010A0006D1CB9F10001A9F10109F4DC641C65E7CC
:1010B000092801000146114A12884A434FF0E023F3
:1010C0005A6100229A611A46126942F001021A61BD
:1010D00000BF4FF0E022106900F001021AB100F4E5
:1010E0008032002AF5D04FF0E022126922F001028E
:1010F0004FF0E0231A6100229A6170475E000020E1
:1011000008B501210420FFF7FDF90220ADF8000029
:1011100004208DF8030069460148FFF7ABF808BDCD
:101120000008014008B501210420FFF7EBF9022077
:10113000ADF8000003208DF8020010208DF80300A8
:1011400069460448FFF796F802210248FFF726F99E
:1011500008BD00000008014010B500F059F82A4809
:10116000007800F00F0028490978091101EB81018E
:1011700000EB4100254988712348407800F00F00BA
:1011800021494978C1F3021101EB810100EB4100D3
:101190001E4948711C48807800F00F001A49897870
:1011A000091101EB810100EB410018490871164853
:1011B000C07800F00F001449C978091101EB8101D2
:1011C00000EB41001149C8700F48007900F00F0092
:1011D0000D490979091101EB810100EB41000B492F
:1011E000887009484079C8710748807900F00F007D
:1011F00005498979091101EB810100EB410000F5F6
:10120000FA600249088010BD740000206C000020C4
:1012100010B5812000F04EF810490870832000F0CE
:1012200049F80E494870852000F044F80B49887051
:10123000872000F03FF80949C870892000F03AF88B
:10124000064908718B2000F035F8044948718D205B
:1012500000F030F80149887110BD000074000020D2
:1012600008B501211020FFF74DF90220ADF800006C
:1012700003208DF8020010208DF8030069460C4809
:10128000FEF7F8FF02210A48FFF788F80120ADF8C1
:10129000000003208DF8020010208DF8030069463D
:1012A0000348FEF7E7FF01210148FFF777F808BD83
:1012B000001001402DE9F04105462F46002600248C
:1012C00002212348FFF76AF801212148FFF766F859
:1012D0000320FEF7A9FF02211D48FFF761F8032054
:1012E000FEF7A2FF384600F037F8FFF709FF0220AB
:1012F000FEF79AFF00BF1AE00220FEF795FF641088
:1013000001211348FFF74CF80420FEF78DFF01215F
:101310000F48FFF743F80E20FEF786FF02210D4825
:10132000FFF733F808B144F08004701CC6B2082EF1
:10133000E2DB0220FEF778FF02210548FFF72EF8D6
:1013400002210448FFF72AF82046BDE8F08100009A
:10135000001001400008014070B50446FFF7E2FEAE
:10136000002501210F48FFF719F800BF16E0012101
:101370000C48FFF713F804F0010020B102210A48DD
:10138000FFF70EF803E002210748FFF707F80121F5
:101390000448FFF705F86410681CC5B2082DE6DBA9
:1013A00070BD0000001001400008014070B5044607
:1013B0000D461646002C3EDBB4EB460F3BDAAC4242
:1013C0000CDA1D48007848B940F23A711B48FFF723
:1013D00010FB4FF4FA70FFF76DFE2CE0AC4207DA19
:1013E00015480078012803D100201349087022E035
:1013F000A81900EBD0714910A1420FDA1049097801
:1014000061B940F26C710D48FFF7F3FA4FF4FA70CE
:10141000FFF750FE00200B4908700CE0A81900EB04
:10142000D0714910A14206DA05490978012902D193
:1014300000200349087070BD4400002000340140C2
:10144000450000205500002070B504460D46E1B26D
:101450000748FFF75EFD00BF40210548FFF78CFC01
:101460000028F9D040210248FFF762FC204670BDF9
:10147000003801402DE9F05F06460F464FF00008A6
:101480003046FEF795FEC5B231463846FEF77EFE81
:10149000044621A12046FEF779FE82462046FEF74B
:1014A00087FE83465046FEF783FEABEB0000401BF1
:1014B00000F0FF09B9F1010F06D0B9F1020F08D011
:1014C000B9F1030F23D110E0605D303800F0FF0860
:1014D0001DE0681C205C3038615D303901EB810112
:1014E00000EB410000F0FF0811E0605D303864213E
:1014F0004843691C615C303901EB810100EB41011B
:10150000A81C205C3038084400F0FF0800BF00BF72
:101510004046BDE8F09F00002C000000A4B000F0A1
:101520008BFAFEF781FF00F0F5FA00F02FFBFFF7D2
:1015300097FE0520FFF7BEFD00F050FAFFF738F9DF
:1015400000F074FB4FF40041B348FEF729FF4FF45D
:101550008041B148FEF724FF40F2CF2140F2CF7026
:1015600000F08CFA4FF48071AC48FEF717FF4FF48F
:101570007A70FFF79FFD2824002578263C274FF03E
:1015800017084FF000094FF01E0A4FF03C0B00BF48
:1015900040E1FFF7E1FDA2488079A1494979A04ADD
:1015A0001279CDE9002102909D48C37882780188A4
:1015B0009CA0FFF7B5FC4FF47A70FFF77BFDA748BE
:1015C0000078012805D15A465146A5480078FFF712
:1015D000EDFEA4480078012853D1A3480068FFF726
:1015E0009FFCA2480278A0480168A1A0FFF742FF33
:1015F00004469E4802789C4801689FA0FFF73AFF86
:1016000005469A480278984801689DA0FFF732FF86
:10161000064696480278944801689BA0FFF72AFF87
:101620000746924802789048016899A0FFF722FF88
:1016300080468E4802788C48016897A0FFF71AFF11
:101640008146214696A0FFF76BFC294697A0FFF73D
:1016500067FC314698A0FFF763FC394699A0FFF775
:101660005FFC41469AA0FFF75BFC49469BA0FFF751
:1016700057FC40217C480068FEF77DFD0020794939
:1016800008709948007801287ED19848016804A81C
:10169000FEF795FD04A8FFF743FC7448027804A9FF
:1016A00093A0FFF7E7FE944908707048027804A9F8
:1016B00092A0FFF7DFFE934908706C48027804A9F6
:1016C00091A0FFF7D7FE934908706848027804A9F3
:1016D00091A0FFF7CFFE624908708748017890A07B
:1016E000FFF71EFC8748017890A0FFF719FC894896
:1016F000017890A0FFF714FC5948017890A0FFF7FB
:101700000FFC402104A8FEF736FD7B480078A0427C
:1017100025DD8EA0FFF704FC8E480078F8B98EA076
:10172000FFF7FEFBFFF7BAF94FF47A70FFF7C2FC40
:101730004FF47A70FFF7BEFC012086490870FFF76E
:10174000CBF94FF400413448FEF728FE4FF48041B6
:101750003148FEF723FE4FF47A70FFF7ABFC664882
:101760000078A84228DA7EA0FFF7DAFB79480078F3
:10177000012821D17CA0FFF7D3FBFFF7C7F94FF475
:101780007A70FFF797FC00E036E04FF47A70FFF7CD
:1017900091FC00206F490870FFF79EF94FF400415B
:1017A0001D48FEF7FDFD4FF480411B48FEF7F8FD94
:1017B0004FF47A70FFF77EFC52480078B04208DDA3
:1017C0004FF480411448FEF7E9FD4FF47A70FFF7BB
:1017D00071FC4C480078B8420BDA5E48007840B99A
:1017E0004FF480410C48FEF7DBFD4FF47A70FFF7B1
:1017F00061FC00203C49087009480079404509D146
:1018000007484079484505D15A4651461448007862
:10181000FFF7CCFDBDE60000000C014000080140D0
:101820006C000020796561723A25642C6D6F6E74CE
:10183000683A25642C6461793A25642C686F757266
:101840003A25642C6D696E7574653A25642C736550
:1018500064636F6E3A25640A0000000055000020A2
:101860002F000020540000205800002052000020CB
:101870004D6178543A0000004D696E543A00000002
:101880004D6178413A0000004D696E413A00000018
:10189000686F75723A0000006D696E7574653A0084
:1018A0006D617874656D703A25640A006D696E74B7
:1018B000656D703A25640A006D61786169723A2538
:1018C000640A00006D696E6169723A25640A00005D
:1018D000686F75723A25640A000000004D696E75E4
:1018E00074653A25640A0000530000204800002077
:1018F0002274656D70223A002C000020224169722A
:10190000223A00002E0000202268756D6964223A98
:10191000000000002D00002022666F6F64223A0054
:1019200074656D703A25640A000000006169723ABE
:1019300025640A0068756D69643A25640A00000030
:10194000666F6F643A25640A000000003E3E3E0A5E
:1019500000000000300000206F70656E0A0000007B
:101960003C3C3C0A00000000636C6F73650A000099
:10197000F0B50B30154D20F007010024144A0FE09C
:1019800003688B420BD38B4205D95E1A4318476814
:10199000C3E9006700E04368136002C004E0021D71
:1019A00010680028ECD12046002802D1286808B130
:1019B0000020F0BD064A07481060074A121A22F0BC
:1019C0000702C0E9002401202860D7E78400002036
:1019D000800000208C0000208802002008B5012132
:1019E0001920FEF78FFD10208DF803004FF45050A2
:1019F000ADF8000003208DF8020069460C48FEF7A0
:101A000039FC0420ADF8000069460A48FEF732FCB4
:101A100018208DF803004FF41070ADF8000003207B
:101A20008DF8020069460248FEF724FC08BD00005C
:101A3000000C01400010014010B56FF00400FEF7EB
:101A400051FE0A4800680A49B0FBF1F009490870E4
:101A50000846007800EB4001C1EBC0104FF6FF7163
:101A600001EAC0000449088010BD00000000002009
:101A700000127A005C0000205E00002030B589B0C2
:101A800005460C46012142F21100FEF73BFD1820ED
:101A90008DF823004020ADF8200003208DF82200AF
:101AA00008A91A48FEF7E6FB0020ADF81A00ADF8C9
:101AB0001600A8B2ADF81800A0B2ADF8140005A940
:101AC0001348FEF799FF7020ADF804000020ADF830
:101AD0000C000120ADF8060040F26C70ADF80A0071
:101AE00001A90B48FEF7E4FE01210948FEF7A4FE18
:101AF00008210748FEF728FF01210548FEF7ABFE45
:101B000001210348FEF7B3FE09B030BD00100140CB
:101B10000034014000B585B0FEF744FC0121880384
:101B2000FEF7F0FC4FF4E13001900020ADF810001A
:101B30000C20ADF80E000020ADF80C00ADF80A0046
:101B4000ADF8080001A91048FFF772F9012240F230
:101B500025510D48FFF747F94FF4A060FEF7B6FC9A
:101B600025208DF8000001208DF803008DF801007C
:101B70008DF802006846FEF771FC01210248FFF76C
:101B8000EFF805B000BD00000038014000B585B099
:101B9000FEF728FC01214804FEF7A4FC4FF4165080
:101BA00001900020ADF810000C20ADF80E000020D0
:101BB000ADF80C00ADF80A00ADF8080001A917480F
:101BC000FFF736F9012240F225511448FFF70BF9CF
:101BD0004FF4A060FEF77AFC26208DF8000001206B
:101BE0008DF803008DF801008DF802006846FEF7BD
:101BF00035FC01210948FFF7B3F88020FFF7B8FE54
:101C0000074908604020FFF7B3FE0649086020201E
:101C1000FFF7AEFE0449086005B000BD0044004077
:101C200048000020580000204C00002008B5012189
:101C30000820FEF767FC14208DF803004FF40040E5
:101C4000ADF8000003208DF8020069460548FEF754
:101C500011FB4FF48040ADF8000069460148FEF7E3
:101C600009FB08BD000C0140881C00080000002092
:101C700088000000400F0008101D000888000020A8
:101C800000060000500F000800A24A0400000000F7
:101C9000000000000102030406070809000000001C
:101CA00001020304010203040607080902040608EE
:101CB0000000000000000000000000000000000024
:101CC0000000000000000000000000000101000012
:101CD0000000000000000000000000000000000004
:101CE00000000000000000000000000000000000F4
:101CF00000000000000000000000000000000000E4
:101D000000000000000000000000000000000000D3
:0400000508000131BD
:00000001FF
